:020000040800F2
:1000000000200020593900089D3900089D3900085A
:100010009D3900089D3900089D3900080000000046
:100020000000000000000000000000009D390008F2
:100030009D390008000000009D3900089D39000826
:100040009D3900089D3900089D3900089D39000838
:100050009D3900089D3900089D3900089D39000828
:100060009D3900089D3900089D390008652F00085A
:100070009D3900089D390008812E00089D3900082F
:100080009D3900089D3900089D39000800000000D6
:100090000000000000000000000000009D39000882
:1000A0005D3000089D3900089D3900089D39000821
:1000B0009D3900089D390008000000009D390008A6
:1000C0009D39000800000000000000009D39000874
:1000D000000000009D3900089D3900080000000064
:1000E0009D3900089D3900089D3900080000000076
:1000F0000000000000000000000000000000000000
:1001000000000000000000000000000000000000EF
:1001100000000000000000009D3900089D39000823
:10012000034613F8012B002AFBD1181A0138704737
:1001300080F0004002E000BF81F0004142001FBF9C
:100140005FEA410392EA030F7FEA226C7FEA236CA5
:100150006AD04FEA1262D2EB1363C1BFD21841409A
:1001600048404140B8BF5B42192B88BF704710F030
:10017000004F40F4000020F07F4018BF404211F0D3
:10018000004F41F4000121F07F4118BF494292EA3B
:10019000030F3FD0A2F1010241FA03FC10EB0C0067
:1001A000C3F1200301FA03F100F0004302D54942F4
:1001B00060EB4000B0F5000F13D3B0F1807F06D3A1
:1001C00040084FEA310102F10102FE2A51D2B1F199
:1001D000004F40EBC25008BF20F0010040EA03008E
:1001E0007047490040EB000010F4000FA2F101023B
:1001F000EDD1B0FA80FCACF1080CB2EB0C0200FAC5
:100200000CF0AABF00EBC25052421843BCBFD04012
:100210001843704792F0000F81F4000106BF80F48C
:1002200000000132013BB5E74FEA41037FEA226C4F
:1002300018BF7FEA236C21D092EA030F04D092F01A
:10024000000F08BF0846704790EA010F1CBF00204E
:10025000704712F07F4F04D1400028BF40F00040AB
:10026000704712F100723CBF00F50000704700F0CB
:10027000004343F0FE4040F4000070477FEA2262F2
:1002800016BF08467FEA23630146420206BF5FEAC3
:10029000412390EA010F40F4800070474FF00003C3
:1002A00004E000BF10F0004348BF40425FEA000C8A
:1002B00008BF704743F0964301464FF000001CE032
:1002C00050EA010208BF70474FF000030AE000BF88
:1002D00050EA010208BF704711F0004302D54042C6
:1002E00061EB41015FEA010C02BF84460146002038
:1002F00043F0B64308BFA3F18053A3F50003BCFA53
:100300008CF2083AA3EBC25310DB01FA02FC6344FF
:1003100000FA02FCC2F12002BCF1004F20FA02F206
:1003200043EB020008BF20F00100704702F12002F9
:1003300001FA02FCC2F1200250EA4C0021FA02F25A
:1003400043EB020008BF20EADC7070474FF0FF0C5F
:100350001CEAD0521EBF1CEAD15392EA0C0F93EA5A
:100360000C0F6FD01A4480EA010C400218BF5FEAFC
:1003700041211ED04FF0006343EA501043EA51116F
:10038000A0FB01310CF00040B1F5000F3EBF490069
:1003900041EAD3715B0040EA010062F17F02FD2A6D
:1003A0001DD8B3F1004F40EBC25008BF20F0010050
:1003B000704790F0000F0CF0004C08BF49024CEA67
:1003C000502040EA51207F3AC2BFD2F1FF0340EAF9
:1003D000C250704740F400004FF00003013A5DDC6A
:1003E00012F1190FDCBF00F000407047C2F10002AB
:1003F000410021FA02F1C2F1200200FA02FC5FEA98
:10040000310040F1000053EA4C0308BF20EADC70E1
:10041000704792F0000F00F0004C02BF400010F453
:10042000000F013AF9D040EA0C0093F0000F01F000
:10043000004C02BF490011F4000F013BF9D041EA22
:100440000C018FE70CEAD15392EA0C0F18BF93EA24
:100450000C0F0AD030F0004C18BF31F0004CD8D14E
:1004600080EA010000F00040704790F0000F17BFD5
:1004700090F0004F084691F0000F91F0004F14D01B
:1004800092EA0C0F01D142020FD193EA0C0F03D173
:100490004B0218BF084608D180EA010000F0004076
:1004A00040F0FE4040F40000704740F0FE4040F451
:1004B000400070474FF0FF0C1CEAD0521EBF1CEAF0
:1004C000D15392EA0C0F93EA0C0F69D0A2EB03020E
:1004D00080EA010C49024FEA402037D04FF08053A8
:1004E00043EA111143EA10130CF000408B4238BF6D
:1004F0005B0042F17D024FF4000C8B4224BF5B1A7B
:1005000040EA0C00B3EB510F24BFA3EB510340EAC8
:100510005C00B3EB910F24BFA3EB910340EA9C0076
:10052000B3EBD10F24BFA3EBD10340EADC001B01E6
:1005300018BF5FEA1C1CE0D1FD2A3FF650AF8B428A
:1005400040EBC25008BF20F0010070470CF0004C97
:100550004CEA50207F32C2BFD2F1FF0340EAC250C2
:10056000704740F400004FF00003013A37E792F083
:10057000000F00F0004C02BF400010F4000F013AE1
:10058000F9D040EA0C0093F0000F01F0004C02BFDC
:10059000490011F4000F013BF9D041EA0C0195E745
:1005A0000CEAD15392EA0C0F08D142027FF47DAFDE
:1005B00093EA0C0F7FF470AF084676E793EA0C0FCE
:1005C00004D14B023FF44CAF08466EE730F0004CCC
:1005D00018BF31F0004CCAD130F000427FF45CAF5C
:1005E00031F000437FF43CAF5FE700BF4FF0FF3CCA
:1005F00006E000BF4FF0010C02E000BF4FF0010C1D
:100600004DF804CD4FEA40024FEA41037FEA226CE5
:1006100018BF7FEA236C11D001B052EA530C18BF07
:1006200090EA010F58BFB2EB030088BFC81738BF6C
:100630006FEAE17018BF40F0010070477FEA226C5A
:1006400002D15FEA402C05D17FEA236CE4D15FEA56
:10065000412CE1D05DF8040B704700BF844608468A
:100660006146FFE70FB5FFF7C9FF002848BF10F14B
:10067000000F0FBD4DF808EDFFF7F4FF0CBF012090
:1006800000205DF808FB00BF4DF808EDFFF7EAFF1A
:1006900034BF012000205DF808FB00BF4DF808EDD5
:1006A000FFF7E0FF94BF012000205DF808FB00BFCA
:1006B0004DF808EDFFF7D2FF94BF012000205DF850
:1006C00008FB00BF4DF808EDFFF7C8FF34BF01205D
:1006D00000205DF808FB00BF4FEA4002B2F1FE4F78
:1006E0000FD34FF09E03B3EB12620DD94FEA0023F4
:1006F00043F0004310F0004F23FA02F018BF4042CD
:1007000070474FF00000704712F1610F01D14202B3
:1007100005D110F0004008BF6FF0004070474FF067
:10072000000070477BB972B90029BEBF00204FF0AE
:10073000004106E008BF00281CBF6FF000414FF0E9
:10074000FF3000F0B5B9ADF1080C6DE904CE002919
:1007500009DB002B1ADB00F035F8DDF804E0DDE9F9
:10076000022304B07047404261EB4101002B1BDBC8
:1007700000F028F8DDF804E0DDE9022304B040428F
:1007800061EB4101524263EB43037047524263EB1A
:10079000430300F017F8DDF804E0DDE9022304B0BC
:1007A000404261EB41017047524263EB430300F06A
:1007B00009F8DDF804E0DDE9022304B0524263EBFE
:1007C000430370472DE9F04F8C460C460546099EC1
:1007D000002B4FD18A4217466BD9B2FA82FEBEF186
:1007E000000F0BD0CEF1200520FA05F501FA0EF32B
:1007F00045EA030C02FA0EF700FA0EF5390CBCFBC1
:10080000F1F0BAB201FB10C300FB02F84FEA154C3D
:100810004CEA0344A04509D9E41900F1FF3380F004
:100820002881A04540F2258102383C44C8EB0404ED
:10083000B4FBF1F301FB134C03FB02F2ACB244EA4C
:100840000C418A4209D9C91903F1FF3480F00F81A4
:100850008A4240F20C81023B39448A1A43EA004042
:100860000021002E63D022FA0EF2002386E80C004D
:10087000BDE8F08F8B4207D9002E56D0002186E8C4
:1008800011000846BDE8F08FB3FA83F1002940F06B
:100890009380A34202D3824200F2FE80851A64EB69
:1008A00003039C460120002E41D086E82010BDE8BD
:1008B000F08F12B90127B7FBF2F7B7FA87FEBEF146
:1008C000000F36D1E41B4FEA17481FFA87F90121C0
:1008D000B4FBF8F308FB134409FB03F24FEA154C91
:1008E0004CEA0444A24207D9E41903F1FF3002D2D2
:1008F000A24200F2D3800346A41AB4FBF8F008FB2E
:10090000104809FB00F9ACB244EA0842914507D906
:10091000D21900F1FF3402D2914500F2BA8020468C
:10092000C9EB020240EA03409BE731463046BDE88E
:10093000F08F07FA0EF7CEF1200C24FA0CF34FEAF1
:100940001748B3FBF8FA1FFA87F908FB1A3520FAA3
:100950000CFC04FA0EF40AFB09FB4CEA040C4FEA07
:100960001C4242EA05439B4500FA0EF50AD9DB1901
:100970000AF1FF3280F08B809B4540F28880AAF11B
:10098000020A3B44CBEB0303B3FBF8F008FB103344
:1009900000FB09F41FFA8CFC4CEA03439C4207D984
:1009A000DB1900F1FF326ED29C426CD902383B4415
:1009B0001C1B40EA0A418BE7C1F1200E8B4022FA52
:1009C0000EFC4CEA030C24FA0EF74FEA1C49B7FB65
:1009D000F9FA1FFA8CF309FB1A7720FA0EF88C400B
:1009E0000AFB03F548EA04044FEA144848EA0747BB
:1009F000BD4202FA01F200FA01FB09D917EB0C071C
:100A00000AF1FF3041D2BD423FD9AAF1020A674440
:100A10007F1BB7FBF9F509FB157705FB03F3A4B2C0
:100A200044EA0747BB4208D917EB0C0705F1FF3032
:100A300027D2BB4225D9023D674445EA0A40A0FBC4
:100A40000289FF1A4F4545464C4614D329D066B358
:100A5000BBEB050367EB040707FA0EFECB40CF4064
:100A60004EEA030386E888000021BDE8F08F2346A4
:100A7000F3E61846DAE6B8EB020569EB0C04013838
:100A8000E5E70546D9E7104692E78246C0E7924679
:100A900078E702383A4443E7084604E7023B3C441F
:100AA0002AE7C345E7D33C46D1E73146BDE8F08F9E
:100AB000704700BF00F0070030B5C0F10704042CF8
:100AC00028BF04240125031D05FA04F4062B04F1B4
:100AD000FF348CBFC31E00230C409C4005FA03F377
:100AE000013B03EA0200204330BD0000124BF0B589
:100AF0001E46124C00255C6004F188345C6095420F
:100B00000D4C13DA6C1031F814701C6944F00104B8
:100B10001C61DC68E407FCD42F52DC68E407FCD4D9
:100B20003469023524F001043461E8E7236943F0B5
:100B300080032361F0BD00BF002002402301674510
:100B400010B552100023401A934204DA445A01337C
:100B500021F8024BF8E710BDF7B506464FF6FF77D0
:100B60000C4B1D682C1D042220460DEB0201FFF7E3
:100B7000E7FFBDF8063005F58060BB4202D01C449B
:100B80008442F0D3801B844234BF2046002003B04F
:100B9000F0BD00BFEC0000200D4B0E4A5A6002F180
:100BA00088325A601A6942F002021A6158611A6961
:100BB00042F040021A61D968054AC907FBD413699B
:100BC00023F002031361136943F08003136170473C
:100BD00000200240230167452DE9F04F824E834DEE
:100BE0003368142202FB0353814C93F909202168D6
:100BF00085B08A420746DFF81CA203DC93F90A306D
:100C0000994203DD00232260CAF80030DAF8003090
:100C100083B907F0023323F0007313B12368013B5B
:100C2000236007F0043323F080635BB12368013352
:100C3000236007E02068142303FB00533A465B68F7
:100C40006C4998473368142202FB035292F90A80D8
:100C500022684FF0140B9045B8BF654A0BFB035355
:100C6000B8BFC2F80080226893F90990D11C88456A
:100C7000D4BFA8F1050202F1FF329145B8BF9146F9
:100C800093F9083009F105029045A8BF9046002B62
:100C90000BDB0021084602F01DF83368534A01219E
:100CA0000BFB0323D86801F0FBFF5420002102F066
:100CB00011F83368142202FB035393F90930002121
:100CC000994514BF4C484D4801F0EAFF336814229F
:100CD00002FB035393F90A30984503D0002148489A
:100CE00001F0DEFF0121474801F0DAFF142303FB86
:100CF00009530193C9EB08034FF0000B0393039BC7
:100D000000209B45404B187039DC0BF10203DBB22D
:100D10001946029301F0DEFF23680BEB09084345F7
:100D200002BF394AFF231370019B0121D86801F0EB
:100D3000B7FF019B5B68E3B100222E49404698470C
:100D40002368434505D1DAF8003013B12E4A002359
:100D500013702848FFF7E4F9A0EB800040006030F2
:100D6000029900F0FE0001F0B5FF0121214801F0D9
:100D700097FF019B0BF1010B14330193BFE7FB07B6
:100D800016D5DAF80020DFF88C807AB920681423B1
:100D900003FB00535B6823B31649984710B1144B0B
:100DA00018681EE00123C8F8003001E0C8F8000010
:100DB000DAF80030A3B93368142101FB0355134A54
:100DC000134B12681B682969D21A07F48073914289
:100DD000ACBF1F4643F0010717B195F9080000E0CA
:100DE000306805B0BDE8F08F54020020D43F000801
:100DF000E80000201C0A00205A3F0008BD450008FA
:100E00002C3F0008473F0008DC040020D0040020ED
:100E100098020020F800002010B50C2002F044FEDB
:100E200000230446037103604371102002F03CFE6E
:100E3000A060204610BD00002DE9F7430746884614
:100E40004FF6FF79114B00251E68341D04220DEB6F
:100E500002012046FFF774FEBDF80430BB4207D103
:100E6000BDF806204146043A201DFFF769FE013512
:100E7000BDF806304B451C4403D006F580639C4208
:100E8000E4D3284603B0BDE8F08300BFEC000020A7
:100E9000F7B50646114B00271D682C1D04220DEBEB
:100EA00002012046FFF74CFEBDF80430B34207D1E3
:100EB00004220DEB02012046ADF80470FFF716FE88
:100EC0004FF6FF72BDF80630934204D01C4405F57E
:100ED00080639C42E2D3002003B0F0BDEC00002010
:100EE0002DE9F04FA3B002AC884621468146174653
:100EF000FFF7A2FF00280DDD00231A46BB4207DAE8
:100F000018F90300E1560133884218BF0132F5E7B2
:100F1000002A56D0484607F1040AFFF7B9FF5046A9
:100F2000FFF71AFE00283AD1284BDFF8A8B000934B
:100F3000274B04221E461C6869465C4508BF04F521
:100F4000806B5846FFF7D2FDC6F800B04FF6FF762B
:100F5000251D04220DEB02012846FFF7F1FDBDF827
:100F6000043083B1BDF80620B2420CD0043A12A975
:100F7000281DFFF7E5FDBDF8062012A9043ABDF8CB
:100F80000400FFF7ADFFBDF80630B3421D4403D0A7
:100F900004F580639D42DCD32046FFF7FDFD5046FB
:100FA000FFF7DAFD22A921F8409D0422ADF84AA0FE
:100FB000FFF79CFD3A4604304146FFF797FD0120BC
:100FC00000E0022023B0BDE8F08F00BF2006FECA7B
:100FD000EC000020004C000870B5064629254FF0B3
:100FE0007E5421462046FFF7B1F93146FFF7A4F8B9
:100FF0000B4920F00040FFF75BFB70B1013D0CD0C6
:1010000021463046FFF756FA2146FFF797F84FF092
:101010007C51FFF79BF90446E3E7204670BD00BF13
:10102000C21601002DE9F04F064685B0072002F0F8
:101030008FFB9B4D9B4C814621682868FFF77EF80B
:101040006168286007466868FFF778F8964A804626
:101050001368686001339945136000F302814846C4
:10106000FFF720F9014682463846FFF723FA51463A
:10107000206081464046FFF71DFA606080460120EF
:1010800002F066FB894F50B139684846FFF754F8C3
:10109000796820604046FFF74FF8606003E0C7F8CA
:1010A0000090C7F80480824B67681868FFF7FAF869
:1010B000804980463846FFF749F97F4981464046D6
:1010C000FFF744F901464846FFF7F4F941468146E7
:1010D0003846FFF73BF901467848FFF7EBF9394608
:1010E00080462068FFF7E6F920F0004739464FF0C8
:1010F0007E50FFF7DFF9022101904E2001F0EAFD5A
:10110000022002F025FB6E4B002153F8200001F075
:10111000C7FD022002F01CFB0128DFF888A11ED1C8
:1011200039463846FFF712F94FF07E510290FFF72B
:1011300005F8834601464846FFF708F959468146B7
:101140004046FFF7B7F9DAF8001080465846FFF737
:10115000FDF8029B1946FFF7ADF9CAF8000003201D
:1011600002F0F6FA574BD4F804B053F82030DFF809
:1011700034A102932368194618460393FFF7E6F853
:10118000594604465846FFF7E1F801462046FEF767
:10119000D5FFFFF721FF4C4C039B206019465846B2
:1011A00002F010FD4949FFF7D1F8019B606008206B
:1011B0002362676202F0CCFA0146002001F0A4FD30
:1011C000092002F0C5FA0146012001F09DFD0B2027
:1011D00002F0BEFA0146022001F096FD2168029855
:1011E000FFF770FAA0B1DAF800100320384A02F0D5
:1011F000C9FA0021DAF80400FFF764FA10B1354AA1
:10120000494601E04146344A062002F0BBFA1BE0A1
:101210000324E1B2002001F05DFD013401212F48DB
:1012200001F03EFD082CF4D12146002001F052FDD2
:1012300001212B4801F034FD0421002001F04AFD7A
:101240000121284801F02CFD042002F081FA10B1A0
:10125000254801F03FFC00232B606B60124B0022FD
:101260001A60224D00212C684C20A4F548630A2402
:1012700093FBF4F401F02EFD24EAE47406235C43AE
:10128000642394FBF3F40027BC4231DB7F2101206F
:1012900001F09EFC7F21012001F09AFC002130E04A
:1012A000F0000020C8010020D0000020E000002055
:1012B000D001002083F9223E00007A44D4E226B90E
:1012C00034000020203F00089C020020E02E6542F0
:1012D000363F00082E3F0008C5450008303F000893
:1012E000BD450008383F0008453F0008D4040020F1
:1012F0004121012001F06CFC4121012001F068FC3A
:1013000041210120013701F063FC062FBCD17F2170
:10131000012001F05DFC534C1C21012001F058FC20
:1013200003214E2001F0D6FC22684F4B002153F8D8
:10133000220001F0B5FC4E20042101F0CBFC4B4A09
:10134000216817461368083143FA01F111F00101D1
:101350001ABF00214648474801F0A2FC4E20052153
:1013600001F0B8FC3B68216843FA01F111F001017A
:101370001ABF002140483F4801F092FC4E20062150
:1013800001F0A8FC3D4B00211A683D4B1B689A1ADE
:101390003C4B1B681344B3F5166FB4BF3A483B4847
:1013A00001F07EFC07214E2001F094FC012002F0A8
:1013B000CFF9014610B10021354800E0334801F073
:1013C0006FFC0A2002F0C4F9324A2B6852F8202040
:1013D0009A4240D8B50717D52368224A0133042B17
:1013E000C8BF0023136023682B4A52F823002B4AFE
:1013F00010602B4A52F823202A4B1A6002F010F991
:101400000021012002F06CFAB40526D4700706D53D
:10141000012002F09DF9411E012002F061FA7105E0
:1014200007D5002002F094F9013000F0010000F02F
:1014300039FE16F0010F1C4B07D01A681B4B142104
:1014400001FB023393F9080008E0F20501D500F032
:1014500039FE186802E0142000E00E2005B0BDE857
:10146000F08F00BF680E00207C430008640E00204F
:10147000483F00084C3F0008503F0008D0040020BF
:10148000300A002098020020543F0008BB450008A5
:10149000583F0008883F00085C430008D001002046
:1014A000C03F00086000002054020020D43F000824
:1014B0002DE9F84307680D684668D1F804800446B2
:1014C00029463846FEF742FF414681463046FEF740
:1014D0003DFF01464846FEF72FFE41462060384654
:1014E000FEF734FF314607462846FEF72FFF014638
:1014F0003846FEF723FE6060BDE8F8832DE9F0472B
:101500000E684D68044631463046FEF71FFF2946F7
:1015100007462846FEF71AFF01463846FEF70EFE3C
:10152000D4F80080074641463046FEF70FFFD4F856
:101530000490824649462846FEF708FF0146504679
:10154000FEF7FCFD3946FEF7B5FF49462060304600
:10155000FEF7FCFE414606462846FEF7F7FE01462A
:101560003046FEF7E9FD3946FEF7A4FF6060BDE8AE
:10157000F08700002DE98048DFF86883C94BCA4F27
:101580000024CA4D3C70C8F80C306B68C84A23F47C
:1015900040436B60EC61AC616B69012643F0010371
:1015A0006B61C44B89B0EB61C34B3146AB61C34B3C
:1015B000DFF820935A60DE61D8F80C003246C0F3A1
:1015C0000220FFF777FA0001C0B289F80B03D8F8C0
:1015D0000C0022462146C0F30220FFF76BFA0001FF
:1015E000C0B289F80E03D8F80C0022462146C0F399
:1015F0000220FFF75FFA0001C0B289F81803B04B70
:10160000B0484FF4005EC0F800E0436069686A6863
:10161000EB68DFF8D4C243F40073EB60EB6847F289
:10162000780823F40073EB60082346614361A64BFE
:101630004FF02009C3F800C0DFF8B0C222F46052B6
:10164000C3F804C04FF4C07CC3F810C046F2780C55
:10165000C3F814C04FF4000CC3F80044C3F804C42A
:1016600042F6FD1CC3F810E403F550534FF03F0E53
:10167000A3F828E0A3F82CC04FF0500C1C80A3F86E
:1016800004C04FF07D0CA3F834C04FF4FA7CA3F8EB
:1016900038C09C87A3F840401C81A3F818804FF005
:1016A00033089C83A3F820804FF00208A3F80C8035
:1016B0009C824FF08008A3F844404FF080431C8583
:1016C000A3F82CE0A3F80080A3F804904FF01509CC
:1016D0009E861E879C87A3F84040A3F8089047F693
:1016E0007809A3F818904FF00309A3F81C9040F272
:1016F0001129A3F820909C819C82A3F82844A3F888
:101700002CE4A3F800844FF04008A3F80484A3F865
:1017100034E44FF0140EA3F83844A3F83C44A3F883
:101720004044A3F808E44FF0780EA3F818E44FF40F
:10173000F04EA3F81CE441F2010EA3F820E4DFF818
:10174000B0E1A3F80C44A3F8144403F5E843C3F84C
:1017500000E003F5C633DFF89CE144331C60C3F8B6
:1017600008E0DFF894E121F46051C3F80CE04FF099
:10177000640EC3F804E042F6B62EC3F800E0D3F8D6
:1017800000E022F00F024EEA060EC3F800E0DFF898
:101790006CE143F83C4C43F834ECDFF864E121F0B1
:1017A0000F0143F830EC41F2A65E43F838CC43F821
:1017B0003CEC53F83CEC42F460524EEA060E43F81F
:1017C0003CEC424B4FF4006EC3F804E0DFF834E128
:1017D00041F00201C3F808E04FF47C0EC3F80CE0BE
:1017E000DFF824E13243C3F810E0DC625E639C68FA
:1017F00034439C609C6844F008049C609E68334CB1
:101800003607FBD4A36843F00403A36023469C6817
:1018100014F00404FBD12E4B1E6846F001161E6026
:101820001E6846F080561E602A4B4FF400661E600C
:101830004FF480461E604FF080761E6081234FF08B
:1018400080463380A6F800346A60696000BF00BF3C
:1018500000BF00BF6A60696000BF00BF00BF00BF7B
:101860006A60696000BF00BF00BF00BF00BF00BF6B
:1018700000BF00BF00BF00BF174B01251D804FF404
:1018800000430361154B03A89A89154E92B242F4A6
:1018900000529A819A894FF0000822F48052120473
:1018A000120C33E00006FA05DC04002000100240B0
:1018B00000030002030000381D4201000000014047
:1018C000A004002000080140000C01400024014059
:1018D0000074004000E100E0004001400038014099
:1018E000004C000800ED00E00020228208002002E9
:1018F0008E038E0320740040F00200204C2401402F
:10190000340A002000019600900040079A811A8A4C
:1019100022F440521204120C1A824FF48B721A8174
:101920009A8992B242F008029A8102F0B1F84FF41B
:101930008273ADF80E304FF40073ADF81630082303
:1019400003A9ADF81830AA480723ADF81C30ADF84C
:101950000C40ADF81040ADF81240ADF81450ADF8A1
:101960001A4002F076F801A802F06BF818238DF8FF
:1019700007306823ADF8043001A903239D488DF892
:10198000063002F00CF8282301A98DF807309A4898
:1019900002238DF80630ADF8045002F000F89748A5
:1019A00001F098F8964801F095F8964DFFF734FA53
:1019B000FFF732FAFFF730FA934B04223C70934C56
:1019C00006F580600DEB0201C3F80080C3F80480C7
:1019D00028600094FFF7B4F8042203A93046FFF70B
:1019E000AFF8019B039AA34201D1511C10D0A2422F
:1019F00003D1013301D12E600AE08548FFF7CCF80E
:101A00008448FFF7C9F8042269468148FFF76EF859
:101A1000814C824D824E00270C2106202560C4F89F
:101A20000480376001F05CFF0521072001F058FFBA
:101A30000121384601F054FF31460120FFF7FCF93F
:101A4000214602202560C4F80480FFF7F5F944F22E
:101A50004F62744F744D3B68744E013B934284BF98
:101A60004FF416633B602B68714A042B84BF00233C
:101A70002B602B68DFF8EC8152F823006D4A6E4C26
:101A800010606E4AA14652F823206D4BDFF8DCA1AE
:101A90001A6001F0C5FD052001F05AFE01F0AAF917
:101AA000062001F055FE00F01F0141F080010020EA
:101AB00001F08EF8002001F04BFE00F0F3FA01F087
:101AC0008BF901215F4801F00BFC5F4B4FF0FF32B7
:101AD0001A605E4B00221A6012233360D8F800307F
:101AE0000A20236001F034FE594B5A4A1B6852F811
:101AF00020209A4284BF1423336001F0F7FECAF815
:101B0000000072B65449554BD3E90023C1E90023C4
:101B100062B6DAF8000018B1D8F80030C9F8003021
:101B2000D9F800103B68D8F800200B44934201DA42
:101B300000F0C8FA326814235343494A3B4CD35847
:101B40009847336898420BD0464B15281A683A4B91
:101B500098BF20601A6084BF0023236001F03CF925
:101B60000020384C01F0F4FD00F09CFA01212046E1
:101B700001F0B6FB3C4B2A681B681341DB072BD5F1
:101B8000DFF8ECB02168DBF80800FEF7D5FA6168F1
:101B90000190DBF80C00FEF7CFFADBF80020029092
:101BA0000392DBF8042001A903A80492FFF780FC4C
:101BB000DBF800102068FEF7BFFADBF80410019094
:101BC0006068FEF7B9FA01A9029003A8FFF796FC36
:101BD000039B2360049B63602168002001F042FBAB
:101BE00061682060012001F03DFB606085E700BF77
:101BF00000300140000C0140000801405C3F00083B
:101C0000773F0008EC000020E00000202006FECA1C
:101C100000500008004C00085C0E00200000164335
:101C20007C0E0020300A0020680E002054020020A4
:101C30005C430008D001002098020020C03F00084B
:101C400060000020C801002064000020D8040020AB
:101C5000D4040020883F0008D8000020C0040020E1
:101C6000D43F0008D0040020640E0020D4000020DF
:101C70006C0E0020F0B5431E00F10B02002403F8A7
:101C8000014F9342FBD10029B8BF2D230E4FBDBF9A
:101C900049420370012400240125002257F82260E4
:101CA0000023B14202DB891B0133FAE713B9092A89
:101CB00000D025B9303303550025013400E001255B
:101CC00001320A2AEAD1F0BD983F000810B5044657
:101CD0000221002000F0FEFF0121032C0BD8DFE8D9
:101CE00004F002040608064806E0064804E0064838
:101CF00002E0064800E00648BDE8104000F0D0BF12
:101D00008C41000899410008A6410008B341000831
:101D1000C0410008072110B50446084600F0DAFF6C
:101D200000210F4800F0BCFF0E4B0F4918680F4B05
:101D30001A68142303FB00130D490968521A196924
:101D4000914201DBE20702D593F9080010BD630759
:101D500004D414F0020F18BF152010BD132010BDBD
:101D6000CD41000854020020D43F0008D0040020D8
:101D70009802002008B5074A074B12681B680846FE
:101D80001341DB074CBF0549054901F003FF4FF044
:101D9000FF3008BD680E0020640E0020DE41000800
:101DA0004D3F000808B5084B08461B6803F10802C0
:101DB000064B1B681341DB074CBF0549054901F081
:101DC000E9FE4FF0FF3008BD680E0020640E0020D1
:101DD000DE4100084D3F0008164B2DE9F041142567
:101DE00005FB003090F9096000230B2E884617464A
:101DF0000B701BDC304601F0ABFC0F4B044605FBBF
:101E000006356B6853F82010404601F0C3FEBA0750
:101E100004D52B6901349C4288BF00247B0748BF4E
:101E200004F1FF342146304601F05AFD0020BDE8A0
:101E3000F08100BFD43F0008F847000870B50720C4
:101E400015460E4601F084FC044601463046FFF775
:101E500011FF15F4807F18BF0524AA0748BF01347D
:101E60006B0748BF04F1FF341CB1152C28BF1424A4
:101E700000E001242146072001F032FD002070BD62
:101E800070B5284C0D46206827491646FEF75EFAC5
:101E9000FEF722FC01462846FFF7ECFE2846FEF737
:101EA0003FF9431EEA56F1052A544FF02E02EA5438
:101EB00028444FF05C0343704FF00003837044BF2D
:101EC0001A4B2360B20704D520681949FEF736F98A
:101ED0002060730704D520681549FEF72DF92060AE
:101EE000144B33402BB120684FF07E51FEF726F99A
:101EF0002060114B33402BB120684FF07E51FEF72C
:101F00001BF9206025680D492846FEF7DBFB20B948
:101F100005492846FEF7B8FB08B1044B23600020B2
:101F200070BD00BF5C0E0020000020410000164381
:101F3000CDCCCC3D00020200000404000000FA44B5
:101F400070B5062015460E4601F002FC0446014617
:101F50003046FFF78FFE15F4807F18BF0C24AA07C8
:101F600048BF01346B0748BF04F1FF342146062007
:101F700001F0D0FB00F01F0141F08001002000F0D3
:101F800027FE002070BD000070B505200E461546E6
:101F900001F0DEFB0D4B044653F82010304601F0F3
:101FA000F9FDAA0706D50134042C28BF00242046D9
:101FB00000F020FF6B0703D5013C204600F01AFF1C
:101FC0002146052001F08CFC002070BD100000208F
:101FD00010B504460021084600F07CFE012115489A
:101FE00000F05EFE0421002000F074FE0021124883
:101FF00000F056FE0721002000F06CFE00210F4883
:1020000000F04EFE22460E490020FFF7BDFF14F0FF
:10201000010F0C4C0CD004220B490120FEF760FF8D
:1020200022680A4B142101FB023393F9080010BD0A
:10203000206810BDE1410008EA410008FB410008AA
:102040001C0A0020540200207C0E0020D43F00080F
:1020500010B5104C10492068012300F1080203FA62
:1020600002F2834013430A68203022EA03030B6024
:10207000FEF70EFF20684030FEF70AFF01F0D6F8A9
:10208000064B14211A68064B01FB023393F9080032
:1020900010BD00BF680E0020640E00205402002016
:1020A000D43F00080146064B28B14FF400421A61A4
:1020B0000121002002E04FF000421A6101F010BC43
:1020C0000008014080B508223A490220FEF708FFC7
:1020D000042239490120FEF703FF384B2022384DF6
:1020E0005A6100264FF40053EB602E606B60354B55
:1020F000354C6B61354BA5211E6003F530439E6066
:102100006368304623F47F63636000F061FDAE21B5
:10211000304600F05DFD082323612D4A4FF4004353
:102120006361136943F0040313612A4B1A6822F0B8
:1021300003021A601A6842F001021A60264A936884
:10214000254F13F4005FFAD044F25063234A244928
:102150001C4EDFF894E053614FF400400023D7F8A1
:1021600008C01CF4005F06D10133734516D08B42C2
:10217000F5DD2061F3E78B4203DD4FF41663536115
:102180000CE0002B606101DD0023E8E7013B13F167
:10219000640FECDA6E6100BF20BFE8E7BFF34F8F3A
:1021A0000B49104BCA6802F4E0621343CB60BFF3E3
:1021B0004F8FFEE75C0E00207C0E002000000140E7
:1021C00000040140FFFF03000008014000740040CC
:1021D00000ED00E000700040001001401C0A0020EB
:1021E000801A06000400FA0540420F0037B50221AC
:1021F000002000F06FFD0121154800F051FD154B46
:102200004FF0FF321A600121684601F069F8009929
:10221000019D0846FEF79AF8294604462846FEF72F
:1022200095F801462046FDF789FF044601F05EFB64
:10223000C30701D5FFF746FF07492046FEF724FAFA
:102240000028E0D10621684601F04AF803B030BD0D
:102250000C420008640000200024744913B50221D8
:10226000002000F037FD01210F4800F019FD0F4B51
:102270004FF0FF321A600121684601F031F80098F2
:1022800020F0004401F032FBC30701D5FFF71AFF2D
:1022900007492046FEF716FA0028ECD106216846C9
:1022A00001F01EF802B010BD1942000864000020C1
:1022B00000002041002138B5084600F00BFD184C05
:1022C0000121184800F0ECFCFFF790FF0020FFF719
:1022D000FDFC3C21204601F003F8134DFFF7BEFF43
:1022E0000120FFF7F3FC04F108003C2100F0F8FFA7
:1022F0002868214610224030FEF7F2FD0B492A687B
:10230000012303FA02F20B6813430B60084B1421FC
:102310001A68084B01FB023393F9080038BD00BF6F
:102320006C0E002027420008680E0020640E00207A
:1023300054020020D43F00082DE9FF470021084641
:10234000DFF8C89100F0C6FC0121664800F0A8FC47
:10235000DFF8BC81D9F800A000F068FFFFF746FF66
:102360000220FFF7B3FC604E0023604CC8F8003039
:1023700001214FF0FF335E48336000F0B1FF3C2194
:102380005B4800F0ADFFA36803200093E36801936E
:102390002369029363690393FFF798FC0121544872
:1023A000316000F09DFF3C21514800F099FFA76883
:1023B000009D39462846FDF7C9FF0021FEF782F946
:1023C000394690B12846FDF7B7FEE16800900198C4
:1023D000FDF7B2FE216901900298FDF7ADFE61693B
:1023E00002900398FDF7A8FE11E02846FDF7A6FE2F
:1023F000E16800900198FDF7A1FE21690190029823
:10240000FDF79CFE616902900398FDF797FE03902B
:1024100002A96846FFF772F8364D009B01272B6032
:10242000019B082132486B603760C9F800A000F0BA
:1024300057FF0020FFF74AFC39462D4800F050FFB7
:102440003C212B4800F04CFFA36868460093E368EA
:1024500026490193FFF752F8FFF700FF08212448AF
:10246000376000F03DFF3846FFF730FC022120487E
:1024700000F036FF3C211E4800F032FF236802A81E
:10248000029363681C490393FFF738F8694602A872
:10249000FFF70EF8009B194CAB61019B2068EB61C4
:1024A000029B29462B62039B282220306B62FEF799
:1024B00017FD134A21681368083107FA01F119431F
:1024C0004FF0FF3333600023C8F800300D4B11602C
:1024D0001A680D4B142101FB023393F9080004B074
:1024E000BDE8F0873342000864000020440E00205D
:1024F000C80100201C0E0020540E0020680E002091
:10250000640E002054020020D43F00086000002028
:10251000D804002010B5042104460C2000F0DAFB9A
:1025200000210D4800F0BCFB0C4B0D49186814222B
:1025300002FB00120B4B0C491B68096812695B1AFD
:102540009A4201DAFFF7BEFD630704D500210A2095
:1025500001F0C6F9002010BD3B42000854020020E3
:10256000D43F0008D0040020980200202DE9F04359
:102570000E4687B0002104461746FEF785F808B9D5
:10258000202302E004F100442D2333703349204618
:10259000FEF784F800B9314C31492046FEF788F83F
:1025A00000B92F4C2F492046FEF76EF8132558B17D
:1025B0002D492046FDF7CAFE2A490446013DFEF793
:1025C00063F80028F4D10BE028492046FEF77AF89A
:1025D00030B120462649FDF7B9FE01350446F3E740
:1025E0004FF0030895FBF8F9B9F1080F0FD93346FE
:1025F000B21D2D2103F8011F9342FBD10023B371BB
:102600001C4B13F809303B7007B0BDE8F0834FF066
:102610007C512046FDF792FDFEF75EF801AC0146C5
:102620001E352046FFF726FB95FBF8F808EB480817
:10263000721CC8EB050500232E209D4214F803E010
:1026400003F1010302F1010104BF5070911C062B3C
:1026500082F800E0D2D00A46EFE700BFF902155039
:102660007D1D902600401C4600002041B34FC3470B
:10267000CDCCCC3D7043000830B505468BB020234F
:102680000AAC04F8283D0DF1010001F083FA22465E
:1026900005A92846FFF76AFF05A8002100F000FB06
:1026A0000021204600F0FCFA0BB030BD2DE9F04FC0
:1026B000824685B0072001F04BF800210290B74E0A
:1026C000084600F007FB0021B54800F0E9FA32683F
:1026D000B44B002153F8220000F0E2FAB24B012182
:1026E0001A6801930AB1B14800E0B14800F0D8FA85
:1026F00001214E2000F0EEFAAE4B0121D3F800B0DC
:102700000393BBF1000F01D0AB4800E0AB48AC4DE8
:1027100000F0C6FAEF6800213846FDF7B5FFD5F89E
:102720001490EC69A74920B92046FDF705FD044641
:1027300008E03846FDF702FDA24907464846FDF786
:10274000FDFC814600212046FDF79EFF20B120467A
:102750009D49FDF7F3FC0446BBF1000F2DD039462F
:102760004846FDF7E9FC394681462046FDF7E4FC82
:10277000DFF84C82954B96490446D8F808001D684E
:10278000FDF7E4FD8346934A914942F82500D8F8C5
:102790001000FDF7DBFD5946FDF7CEFC8E4A8C4953
:1027A00042F82500D8F81800FDF7D0FD5946FDF78E
:1027B000C3FC8A4B43F8250017E0844B8449A86882
:1027C000D3F800B0FDF7C2FD824B814943F82B00DE
:1027D0002869FDF7BBFD804B7D4943F82B00A869B4
:1027E000FDF7B4FD7D4B43F82B00784A7C49136814
:1027F00041F823707B4941F823907B4941F82340FD
:1028000001330F2BC8BF00231360784B02991A685D
:102810001D46013291421A6000F3AB80019B0221F8
:102820001C68002C50D0002000F054FA00217048A1
:1028300000F036FA674800F071F96E49FFF71CFFA7
:102840000321002000F046FA00216B4800F028FA2E
:10285000634800F063F96949FFF70EFF0421002087
:1028600000F038FA0021664800F01AFA5A4800F0E1
:1028700055F96049FFF700FF0521002000F02AFA12
:1028800000215D4800F00CFA564800F047F95B491A
:10289000FFF7F2FE0621002000F01CFA0021594843
:1028A00000F0FEF94D4800F039F95249FFF7E4FE17
:1028B0000721002000F00EFA00214F4800F0F0F947
:1028C000494800F02BF94FE0204600F003FA21467A
:1028D000474800F0E5F93F4800F00EF94549FFF799
:1028E000CBFE0321204600F0F5F92146424800F0D6
:1028F000D7F93B4800F000F94049FFF7BDFE04213D
:10290000204600F0E7F921463D4800F0C9F9324879
:1029100000F0F2F83749FFF7AFFE0521204600F03E
:10292000D9F92146344800F0BBF92E4800F0E4F80C
:102930003249FFF7A1FE0621204600F0CBF92146DF
:10294000304800F0ADF9254800F0D6F82949FFF7E6
:1029500093FE0721204600F0BDF92748214600F0EC
:102960009FF9214800F0C8F82449FFF785FE0023AD
:102970002B601AF0040F07D0019A0B4B12680AB1B2
:10298000002200E001221A601AF4806F3ED0039A00
:10299000084B1268C2B3002237E000BF680E002067
:1029A000484200087C430008FC0000204E4200081A
:1029B000574200080000002060420008BA450008A5
:1029C0009C020020000034430000B443C4010020F6
:1029D0006F12833A1402002084010020D4010020E9
:1029E000400100200001002058020020800100204A
:1029F00064420008E1420008B64500086D42000844
:102A00006F4200087842000801221A601AF0020F93
:102A100013D03368144A0133042BC8BF002313605A
:102A20003368124A52F82300114A1060114A52F8D2
:102A30002320114B1A6000F0F3FD1AF0010F0F4B29
:102A40000DD00C4A316852F821100B4A11601A68F7
:102A50000B4B142101FB023393F9080000E01868C6
:102A600005B0BDE8F08F00BF680E00205C43000891
:102A7000D0010020C03F0008600000205402002068
:102A8000D43F00088000002802DD00BF0138FAE7CB
:102A90007047000008B5074B40225A6142F210709F
:102AA000FFF7F0FF4FF4FA601A61BDE80840FFF746
:102AB000E9BF00BF000C0140054B1A6842F001025B
:102AC0001A601A68D20701D500BFFAE7704700BF45
:102AD000F4040020074A10B51146013810F9013FEF
:102AE00033B1DBB214886406FCD59BB28B80F5E76A
:102AF00010BD00BF0038014038B5051F00F13C048F
:102B0000002355F8041F1846FDF718FBA54203469D
:102B1000F7D14FF07651FDF719FC38BDF8B50446F2
:102B2000FFF7EAFF0746251F00263C34394655F8D3
:102B3000040FFDF701FB0146FDF708FC0146304696
:102B4000FDF7FCFAAC420646F0D14FF07651FDF7A6
:102B5000FDFBBDE8F840FEF73FBA00001A4B1A68CB
:102B600042F001021A605968184A0A405A601A680D
:102B700022F0867222F480321A604FF41F029A60AB
:102B80001A6842F480321A6019680F4A8903FBD52B
:102B9000516841F4C81151600221D162116841F0BD
:102BA000807111601A6808499201FBD548684A682B
:102BB00020F0030042F0020202434A605A6802F029
:102BC0000C02082AFAD17047001002400C00C0F82D
:102BD000194A10B51368012803F101031360174B5C
:102BE0004FF020025A6104D1090691FAA1F141F493
:102BF0008071124A124C0923C8055ABF4FF4C01005
:102C0000106114610020FFF73DFF0020FFF73AFF3D
:102C10000020FFF737FF0820013B10614FEA410118
:102C2000EAD11846FFF72EFF1846FFF72BFF054A9B
:102C3000024B1A6110BD00BFA8040020000C014027
:102C400010000800200018001F28C8BF2038F8B561
:102C5000CCBF40B200200F4E0F4F00EB8004002588
:102C60003368612B07DC3B19595D0C4B01201B7845
:102C70005940FFF7ADFF0135052DF1D1054B1B681C
:102C8000622B06DC054B01201978BDE8F840FFF700
:102C90009FBFF8BDA804002090430008DC0400207A
:102CA00038B504460D4614F9010B10B1FFF7CCFFFF
:102CB000F9E705B938BD054C054D2368622B04DCE6
:102CC00029780120FFF784FFF7E738BDA80400202A
:102CD000DC04002010B504460A4B01F00F01186017
:102CE00041F0B0010020FFF773FF210941F010010E
:102CF0000020FFF76DFF04F00F010020BDE8104039
:102D0000FFF766BFA804002010B50C46C1B2002032
:102D1000FFF7E0FF611E05293AD8DFE801F0030B59
:102D2000161E243100211D48FFF7BAFF1C4B1D4918
:102D3000186806E000211C48FFF7B2FF184B1B493A
:102D4000186ABDE81040FFF797BC00211848FFF74C
:102D5000A7FF134B1549586AF3E700211548FFF701
:102D60009FFF154B04E000211448FFF799FF144B17
:102D70001868FDF793FA1349FDF7E8FA1249E0E7FE
:102D800000211248FFF78CFF054B11495868D8E71E
:102D900000211048BDE81040FFF782BF9C450008A5
:102DA0009C020020363F0008A0450008BD450008F1
:102DB000A4450008A8450008C8040020AC45000848
:102DC000D40400206F12833AE1420008B0450008A5
:102DD0006D420008B4450008002110B50846FFF711
:102DE00079FF40F2723400210120FFF7F1FE013C2F
:102DF000F9D110BD10B504461E4A1F4B1A61FFF7EA
:102E000049FEE2210020FFF7E3FE4FF4FA60FFF7EE
:102E100039FEEB210020FFF7DBFE4FF4FA60FFF7ED
:102E200031FE00202F21FFF7D3FE14F0010002D164
:102E3000C821FFF7CDFE14F002001ABFA121002027
:102E4000A921FFF7C5FEA4210020FFF7C1FEA6219E
:102E50000020FFF7BDFE91210020FFF7B9FEAF2152
:102E60000020FFF7B5FEBDE81040044B00221A60B9
:102E7000FFF7B2BF60001800000C0140A80400205A
:102E8000304A3149314B096810681B682DE9F0411F
:102E90005B0448BF2E4B2F4E2F4D48BF33602B4B4A
:102EA0004FF480525A602C68B4F5FA7FA2BF002319
:102EB0001C462B60294B1B6813B36300284AD6F8C5
:102EC00000809F1E6233174402EB030CA8F1040E2E
:102ED00037F9023F00FB03F31B1403FB01F202EB83
:102EE000034303F1073303F1F81367454EF8043F3A
:102EF000EED1323408F1C8032C603360BDE8F081B4
:102F0000174F6300D6F800C09A1E62333A4407EBAD
:102F1000030EACF1040732F9023F00FB03F31B146C
:102F200003F1073808F1F8181B0401FB03839645E9
:102F300047F8043FEFD132340CF1C8032C60336002
:102F4000BDE8F08160000020640000200000024025
:102F5000F002002020000020CC040020D804002033
:102F600024050020344B354A4FF400512DE9F0433D
:102F7000196113680133C82B136005DD3049002047
:102F80000B68106001330B6040F2771700200021BE
:102F900004460D462B4E2C4A33684FF0010E03F0C9
:102FA0000403002BC6F804E018BF7D27274E0CBF92
:102FB0004FF4FA73002302EB470707F5FA7802EBA8
:102FC000030E06EB030C3CF8022B37F9026BA2F25E
:102FD000FF733EF9029B03FB06F203FB09F3A418FF
:102FE00045EBE275C01A61EBE3714745EBD1DFF8C1
:102FF00048E04FF4005CCEF814C000BFDFF8588002
:10300000CEF810C0D8F80060114A124B02EBC6028D
:10301000D2E90067A4197D41C2E90045D8F8002033
:1030200003EBC203D3E9004500196941C3E900017C
:10303000CEF814C0BDE8F083000C0140F804002075
:10304000D00400200000024024050020340A0020A3
:1030500080040020C8020020F004002061492DE90E
:10306000F041D1E90023013243F10003C1E900231B
:103070005D4A0121138A5D4C23F002031B041B0CE3
:1030800013825B4B4FF480421A6103F5744308339B
:103090001A68584E22F001021A60574A574D516083
:1030A0004FF4FA725A601A680A431A60544B1A684D
:1030B000984612F0010F70D02368032B1AD0042B0E
:1030C00031D1504B1868504B5A88198811449A884E
:1030D0001144DA8811441A8911445A8911449A8991
:1030E0001144DA898B184FF416625343474AB3FBF5
:1030F000F0F317E0444B19885A8818890A449988D4
:103100000A44D9880A445989024411449A89DB89BE
:103110000A4413443B4A136012684FF01673B3FB22
:10312000F2F33B4A13602368013323602368022BC8
:1031300003DD384B1B68002B02DC2368042B2CDDDD
:10314000344A002323601368D6E90001013B48BFDD
:103150001E231360FDF7BCF82F4F3860D5E900013E
:10316000FDF7B6F87860D6E90201FDF7B1F8B8606E
:10317000D5E90201FDF7ACF8F860D6E90401FDF7E6
:10318000A7F83861D5E90401FDF7A2F87861D8F80D
:10319000003023F00103C8F800302368002206EB5A
:1031A000C3060023C6E90023216805EBC105C5E974
:1031B00000231A4B226853F82220194B5A632268C5
:1031C000184B33F82220084B9A852168164A32F8AA
:1031D00021201A874FF48042A3F550535A61BDE86D
:1031E000F08100BFC004002000400140F004002036
:1031F000000C01408004002000000240C8020020B2
:10320000F4040020080A0020340A0020D40400201E
:10321000C804002020050020FC04002064470008AA
:103220000024014038470008884500080C4B002264
:103230004FF07E51C3F80014C3F80424C3F80814F7
:10324000C3F80C24C3F8E823C3F8EC23C3F8F02335
:10325000C3F8F423C3F8F823C3F8FC23704700BF76
:10326000340A00202DE9F041194D044655F820702C
:103270000E4638461749FDF769F81749804630462B
:10328000FDF764F801464046FCF758FF314645F823
:1032900024003846FCF750FF0021FDF7F5F90F4BED
:1032A00053F8242008B1013200E0013A43F8242009
:1032B00053F824300833102B81BF084B45F82460A5
:1032C000002243F8242055F82400BDE8F08100BF17
:1032D000E00400203333733FCDCC4C3DAC040020E0
:1032E0002DE9F04F06460F46C34C0023C34D8DB069
:1032F000C4F81034C4F81434C4F81834C4F81C34B6
:10330000C4F82034C4F82434002F59DDFFF7D4FB6F
:103310002968D4F81004FCF711FF6968C4F8100498
:10332000D4F81404FCF70AFFA968C4F81404D4F80C
:103330001804FCF703FFE968C4F81804D4F81C0467
:10334000FCF7FCFE2969C4F81C04D4F82004FCF73F
:10335000F5FE6969C4F82004D4F82404FCF7EEFEF5
:10336000C4F82404FFF7A8FB2968D4F81004FCF77C
:10337000E3FE6968C4F81004D4F81404FCF7DCFE1A
:10338000A968C4F81404D4F81804FCF7D5FEE96859
:10339000C4F81804D4F81C04FCF7CEFE2969C4F85C
:1033A0001C04D4F82004FCF7C7FE6969C4F82004A3
:1033B000D4F82404FCF7C0FE013FC4F82404A3E7BA
:1033C000D4F8103406A80693D4F814348C49079323
:1033D000D4F818340893D4F81C340993D4F8203462
:1033E0000A93D4F824340B93FEF762F808A88449B2
:1033F000FEF75EF80AA88249FEF75AF8089BDDF846
:103400002890184649460193FCF798FE0146D4F8E7
:103410001004FCF791FE099DDDF82CA08046C4F84D
:10342000100451462846FCF789FE0146D4F81404DE
:10343000FCF782FE069A07461146C4F81404484673
:103440000092FCF77BFE0146D4F81804FCF774FEEA
:10345000DDF81C908346C4F8180449465046FCF732
:103460006DFE0146D4F81C04FCF766FE009A019B31
:1034700011468246C4F81C041846FCF75FFE01465C
:10348000D4F82004FCF758FE4946C4F82004039001
:103490002846FCF753FE0146D4F82404FCF74CFE02
:1034A000DFF87891C4F82404D9F80030029041463E
:1034B00040460093FCF74AFF394605463846FCF77C
:1034C00045FF01462846FCF739FEFDF785FD0190D2
:1034D0000098FCF7E3FE4B49FCF738FF0199FCF735
:1034E00035FF494DD9F80030A86059465846009339
:1034F000FCF72CFF514683465046FCF727FF014658
:103500005846FCF71BFEFDF767FD82460098FCF766
:10351000C5FE3C49FCF71AFF5146FCF717FF039A1A
:10352000286111461046FCF711FF029BD9F800A054
:10353000194681461846FCF709FF01464846FCF744
:10354000FDFDFDF749FD81465046FCF7A7FE2D49DC
:10355000FCF7FCFE4946FCF7F9FE4146A8613846F7
:1035600000F030FB2949FCF7F1FED4F81814E860AC
:10357000D4F81C0400F026FB2449FCF7E7FED4F83D
:1035800020146861D4F8240400F01CFB1F49FCF7E8
:10359000DDFE1F49E86101F11000FDF789FF1D49BB
:1035A00001F11800FDF784FFD4F81014D4F82004BA
:1035B000FCF7C2FDD4F814143060D4F82404FCF7EE
:1035C000BBFD154970603046FDF772FFD4F8181442
:1035D000D4F81004FCF7B0FDD4F81C140490D4F80F
:1035E0001404FCF7A9FD04A905903046FDF786FFF9
:1035F0000DB0BDE8F08F00BF340A0020FC040020AD
:103600001C0E002017B7512B9C020020E02E6542B3
:10361000340E00203C0E00205C0E0020C804002068
:103620002DE9F0418046364E364F4FF4FA750024AE
:103630004FF4FA720023002008FB04F1FDF772F842
:103640000022134610F1804FDFF8C4E0014648BF66
:10365000C0F1004100294EFA02F043FA02FCABBF70
:103660001B181B1A56F8220056F8220002F101021C
:10367000A7BF091ACCEB0E0E0918E644202AE9D19F
:10368000002B4FEAA333CCBF013303F1FF335B10B0
:10369000013D27F8143004F10104C9D11A4B03F19C
:1036A000FA0233F8021F9A42A3F8E813F9D1174D32
:1036B000FFF7BCFDD5F83444002305F57A7104F119
:1036C0002000C5F83034FDF7B7FB0028C1BF012347
:1036D00004F108029340C5F830340C4D04F1400069
:1036E00005F58761FDF7A8FB002807DD012303FA34
:1036F00004F4D5F830342343C5F83034BDE8F08104
:10370000784700082405002022050020340A002004
:10371000B0EDDC261422424330B50C4DAC182069C4
:10372000AD58884228BF0846E268A368C2F120026B
:103730004FF0FF34296824FA02F29A4021EA02028B
:1037400000FA03F313432B6030BD00BFF8470008B5
:10375000142358430A4A10B5135811181B688C6873
:103760004FF0FF3223FA04F4CB680869C3F1200359
:1037700022FA03F32340984228BF184610BD00BF29
:10378000F84700082DE9F04F05460C468FB020237E
:103790000EAF5FFA85FA07F8143D11460DF12500CA
:1037A0000AF1010800F0F6F95FFA88F83A4604A930
:1037B0002046FEF7DBFE41460020FFF78BFA002192
:1037C0002046FCF775FF014628B13E480021FFF76F
:1037D00067FA00250FE03C48F9E7A6F13004E3B2B0
:1037E000092B12D90A2E10DD19F9016B002EF4D124
:1037F0000135032D44D00AF1FF312944C9B2062016
:10380000FFF768FA0DF11009EEE7304B002C93F941
:1038100000B04FF001005FFA8BF1B8BF06F10A0467
:10382000FFF7D6F92A4B33F8143003F12602019240
:10383000284A5E1901998E42D6DC2548611C30F871
:10384000111099F90000B142CABF23490021715CEF
:103850002E2806D12DB903F11E008642C8BF41F0C3
:1038600006011068622809DC8BEA0101C9B2012057
:1038700003920293FFF7ACF9039A029B0336D9E750
:1038800041463C20FFF726FA38463146FFF708FA52
:103890000420FFF75DFF88B19DF925305C2B04D132
:1038A0000E490DF1250000F075F904A8FFF712F993
:1038B0003846FFF70FF90348FFF70CF90FB0BDE8E2
:1038C000F08F00BFBD4500084E3F0008DC0400201B
:1038D0004C470008A80400200C460008BF4500081B
:1038E0000B2801DCFFF716BF0020704700221046AE
:1038F00070B51749174D51F8043F55F832405B0039
:103900000B60266805EBC2046468264204BF43F0DE
:1039100001030B600C6804F00303022B04F03F0664
:1039200004D1B6F13E0318BF012300E000231F2E8F
:10393000E4B208BF43F48073FF2C08BF43F4803324
:1039400093400132032A40EA0300D4D170BD00BF86
:103950001005002070450008002103E00A4B5B5869
:103960004350043109480A4B42189A42F6D3094A97
:1039700002E0002342F8043B074B9A42F9D3FFF7D9
:10398000EDF8FDF7F7FD704708540008000000202F
:10399000CC000020D00000201C0A0020FEE7CA78DE
:1039A0002DE9F041D40648BF8C780E8802F00F0351
:1039B00048BF234316F0FF0F1ED0016800244FF0CC
:1039C000010E4FF00F0C0EFA04F737EA06050FD17F
:1039D000A5000CFA05F821EA080103FA05F5282AE2
:1039E00041EA050101D1476102E0482A08BF0761A9
:1039F0000134082CE7D10160FF2E20D94168002452
:103A00004FF0010E4FF00F0C04F108050EFA05F50A
:103A100035EA06070FD1A7000CFA07F821EA0801DA
:103A200003FA07F7282A41EA070101D1456102E0BC
:103A3000482A08BF05610134082CE5D14160BDE882
:103A4000F0814FF6FF730380022383700423C37059
:103A5000704703880A8810B503F441544B88134318
:103A60008A881343CA8813430A8913434A89134334
:103A70008A891343CA89134323439BB20380838BF0
:103A800023F400631B041B0C83830B8A038210BD89
:103A90000023038043808380C3800381438183812B
:103AA000C381072303827047024B0146186800F068
:103AB00003B800BFC800002070B5CD1C25F0030579
:103AC00008350C2D38BF0C25002D064601DBA94218
:103AD00002D90C23336046E000F064F8234B1C68E5
:103AE0001A462146A1B10B685B1B0ED40B2B03D9E0
:103AF0000B60CC18CD501EE08C420BBF63684B6846
:103B00001360636018BF0C4615E00C464968E9E78E
:103B1000174C23681BB9304600F02CF8206029466A
:103B2000304600F027F8431C18D0C41C24F00304CE
:103B3000A0420DD12560304600F035F804F10B00AD
:103B4000231D20F00700C31A0ED05A42E25070BD68
:103B5000211A304600F00EF80130EBD10C2333600F
:103B6000304600F020F8002070BD00BF100A002091
:103B70000C0A002038B5064C002305460846236091
:103B800000F012F8431C02D1236803B12B6038BD4A
:103B9000180A0020034611F8012B03F8012B002A14
:103BA000F9D1704770477047044A05491368002BE4
:103BB00008BF0B461844106018467047140A0020CE
:103BC000800E002000F000B8F8B50C4621F000414E
:103BD000B1F1FF4F034614DC20F00046B6F1FF4F71
:103BE00007460EDCB4F17E5F3DD0A51705F0020557
:103BF00045EAD07556B9022D31D0032D2CD132486B
:103C0000F8BD19462046FCF799FAF8BD01B3B1F1A9
:103C1000FF4F2CD0B6F1FF4F1AD0711AC9153C29AD
:103C20001BDC002C39DB21461846FCF743FC00F076
:103C300073F900F05BF8012D2CD0022D22D0002D5D
:103C40002FD02249FCF77AFA2149FCF775FAF8BD22
:103C5000002F06DB1F48F8BDF8BD1E48EBE71C48E7
:103C6000F8BD1D48F8BDBDE8F84000F03FB8B6F11A
:103C7000FF4F17D0022DF2D0032DC0D0012D19D047
:103C80000020F8BD1149FCF759FA01461048FCF72D
:103C900053FAF8BD00F10040F8BD3C31C3DA002012
:103CA000C9E7F8BD022D0CD0032D08D0012D04D09A
:103CB0000A48F8BD4FF00040F8BD0948F8BD094872
:103CC000F8BD0948F8BD00BFDB0F49C02EBDBB33AE
:103CD000DB0F4940DB0FC93FDB0FC9BFDB0F493F9B
:103CE000DB0F49BFE4CB16C0E4CB16402DE9F04111
:103CF00020F00045B5F1A14F0446064608DBB5F1BA
:103D0000FF4F6FDC002840F3A0806F48BDE8F081D2
:103D10006E4B9D4277DCB5F1445F68DB4FF0FF37B7
:103D200021462046FCF712FB01468046FCF70EFBBD
:103D300005466749FCF70AFB6649FCF7FFF9294687
:103D4000FCF704FB6449FCF7F9F92946FCF7FEFA95
:103D50006249FCF7F3F92946FCF7F8FA6049FCF7E9
:103D6000EDF92946FCF7F2FA5E49FCF7E7F941461E
:103D7000FCF7ECFA5C4980462846FCF7E7FA5B4919
:103D8000FCF7DAF92946FCF7E1FA5949FCF7D4F9CE
:103D90002946FCF7DBFA5749FCF7CEF92946FCF730
:103DA000D5FA5549FCF7C8F92946FCF7CFFA7B1C30
:103DB000014640464CD0FCF7C1F92146FCF7C6FA53
:103DC0004E4B4F4D53F82710FCF7B6F92146FCF740
:103DD000B3F9014655F82700FCF7AEF9002E30DBA9
:103DE000BDE8F0810146FCF7A9F9BDE8F08145493D
:103DF000FCF7A4F94FF07E51FCF764FC00288DD04D
:103E00002046BDE8F08100F087F83F4B04469D4214
:103E100029DCA3F5D0039D4244DC0146FCF78EF972
:103E20004FF07E51FCF788F94FF08041054620465F
:103E3000FCF784F901462846FCF73CFB00270446C2
:103E40006EE700F10040BDE8F0813048BDE8F08148
:103E5000FCF774F92146FCF779FA01462046FCF795
:103E60006BF9BDE8F0812A4B9D4214DC4FF07F5185
:103E7000FCF762F94FF07F5105462046FCF766FAE1
:103E80004FF07E51FCF75AF901462846FCF712FB29
:103E90000227044644E701461E48FCF70BFB0327B4
:103EA00004463DE74FF07E51FCF746F94FF07E5156
:103EB00005462046FCF742F901462846FCF7FAFA87
:103EC000012704462CE700BFDB0FC93FFFFFDF3EA1
:103ED000D769853C59DA4B3D356B883D6E2EBA3D2E
:103EE0002549123EABAAAA3E21A215BD6BF16E3D3B
:103EF00095879D3D388EE33DCDCC4C3EE84800088B
:103F0000F8480008CAF24971FFFF973FDB0FC9BFAD
:103F1000FFFF1B40000080BF20F00040704700BF43
:103F2000A5D46853002474498096184B3E0048007D
:103F30002020202020205C004F5554204F46205246
:103F4000414E4745000D0A0042414C002D2D2D00E9
:103F500043414C0041504F003E2D3C000D0A535050
:103F60004920686173206265656E20696E697469B5
:103F7000616C697A6564000D0A53454343455346B5
:103F8000554C4C212121000000000000B80B00001E
:103F9000800C0000AC0D000000CA9A3B00E1F50562
:103FA0008096980040420F00A08601001027000074
:103FB000E8030000640000000A00000001000000A7
:103FC0001205000035050000330600007E080000E1
:103FD000340E000025100008000000000100000061
:103FE00095420008FFFFFFFFD90B0008000000000A
:103FF00000020D00A2420008C8000000D90B000812
:10400000411F000801000000AC420008FFFFFFFF55
:10401000D90B0008891F000801000000B542000804
:10402000FFFFFFFFD90B0008D91D000801000000A9
:10403000BF420008FFFFFFFFD90B00083D1E00082C
:1040400001000000C9420008FFFFFFFFD90B000874
:10405000811E000801000000D2420008FFFFFFFFA0
:10406000D90B0008D91D000801020000DA4200083F
:10407000FFFFFFFFD90B0008D91D00080103000056
:10408000E3420008FFFFFFFFD90B0008D91D00081D
:1040900001080000ED420008FFFFFFFFD90B0008F8
:1040A000D91D000801090000F5420008FFFFFFFFCD
:1040B000D90B0008D91D0008010B0000FD420008C3
:1040C000FFFFFFFFD90B0008D91D00080104000005
:1040D00005430008FFFFFFFFD90B0008D91D0008AA
:1040E000010A00000E430008FFFFFFFFD90B000884
:1040F00000000000000F110016430008C800000077
:1041000039230008A51D0008000F00002243000805
:10411000FFFFFFFFB5220008751D0008000000002A
:104120002D430008FFFFFFFF5120000800000000A2
:104130000E00000038430008FFFFFFFF151D0008B8
:1041400000000000000000003E43000814000000D2
:10415000D11F0008000000000000000043430008D9
:10416000FFFFFFFF15250008000000000000000011
:104170004B43000814000000AD26000800000000BA
:104180000000000052430008FFFFFFFF4F70656E04
:104190002063616C202020200053686F72742063BC
:1041A000616C2020200042616C616E6365203120CB
:1041B00020200042616C616E636520322020200067
:1041C0004572726F72212121212120200020486533
:1041D0006C6C6F2C2041524D3131212020004F4B0F
:1041E00000544F50204C4546540073637265656E11
:1041F000206D6F64652073657420002020202042AC
:104200004F54544F4D205249474854004F70656EEB
:10421000206C65616473212100436C6F7365206CB1
:104220006561647321210043616C69627261746924
:104230006F6E0042616C616E63650042617474650B
:104240007279206C6F77210044494147200020207B
:10425000205349474D4100202020204D45414E002C
:1042600052454C00436831285041312900600043D9
:104270006832285041322900436837285041372995
:104280000020316B0020396B0032356B0034396B04
:104290000039376B004D45415320444953504C4140
:1042A00059004D41494E204D454E5500434F4E5407
:1042B000524153540044495350204D4F444500420D
:1042C00041434B4C494748540041564552414745AC
:1042D00053005348554E542052004C4320455155ED
:1042E00049560052414E4745204C494D00504152DD
:1042F000414D203100504152414D20320050415239
:10430000414D20330055415254204F5554004C4FDD
:1043100057204241540043414C4942524154494F75
:104320004E0043482042414C414E4345004F5045CA
:104330004E2D53484F525400524553455400496E38
:10434000666F007363724D6F6465006C6F774261D6
:10435000740064696167536372000000010000002B
:104360000900000019000000310000006100000099
:1043700066706E756D206B4D47000000814200082D
:1043800085420008894200088D42000891420008D9
:10439000000000000000005F00000007000700149C
:1043A0007F147F14242A7F2A12231308646236495B
:1043B0005522500005030000001C2241000041224C
:1043C0001C0014083E081408083E0808005030007D
:1043D00000080808080800606000002010080402B7
:1043E0003E5149453E00427F4000426151494621CD
:1043F00041454B311814127F1027454545393C4A39
:104400004949300171090503364949493606494988
:10441000291E0036360000005636000008142241DE
:104420000014141414140041221408020151090646
:10443000324979413E7E1111117E7F494949363E0C
:10444000414141227F4141221C7F494949417F0925
:104450000909013E4149497A7F0808087F00417FE8
:1044600041002040413F017F081422417F404040ED
:10447000407F020C027F7F0408107F3E4141413E95
:104480007F090909063E4151215E7F0919294646E7
:104490004949493101017F01013F4040403F1F2010
:1044A00040201F3F4038403F6314081463070870E2
:1044B00008076151494543007F4141005E61016148
:1044C0005E0041417F000402010204404040404040
:1044D000000205020020545454787F484444383880
:1044E00044444420384444487F3854545418087E87
:1044F0000901020C5252523E7F0804047800447DA8
:1045000040002040443D007F1028440000417F408F
:10451000007C041804787C08040478384444443847
:104520007C14141408081414187C7C08040408482B
:1045300054545420043F4440203C4040207C1C20E4
:1045400040201C3C4030403C44281028440C505033
:10455000503C4464544C44000836410000007F0045
:1045600000004136080010080810087846414678D7
:104570000810014000200000080C0140000100006C
:10458000080C014080000000EE020000F401000071
:10459000F4010000F4010000F40100005A202000A2
:1045A0005120200044202000564420005642200084
:1045B000414E200020202020202020202020004FBD
:1045C000686D004F46460033563000335632003394
:1045D0005635005A0051005644440056424154009A
:1045E000414E474C00313131300031323032756448
:1045F00000313230320031313130756400314D00DC
:1046000031304D00534552005041520001FFF80334
:10461000FFFC07000E06E006061C060603860600E1
:104620007607000E03FFFC01FFF800000000000009
:1046300006000806000C07FFFE07FFFE0600000646
:10464000000000000000000007003807803C07C0A1
:104650000E06E006067006063806061C06060F0E55
:104660000607FC0601F801C03803C03C07060E0629
:104670000606060606060606060606070F0E03FFD2
:10468000FC01F9F8007800007E00006F800063E014
:104690000060F000603C00600E07FFFE07FFFE00B8
:1046A000600001C7FE03C7FE0706060603060603F1
:1046B0000606030606030607070603FE0601FC06B8
:1046C00001FFF803FFFC06060E06030606030606B6
:1046D000030606030607070E03FE1C01FC18000074
:1046E0000600000606000607800601F006007E06AA
:1046F000000F860003F600007E00001E01F9F8039B
:10470000FFFC070F0E060606060606060606060648
:1047100006070F0E03FFFC01F9F801C3F803C7FCFD
:10472000070E0E060C06060C06060C06060C0607FF
:10473000060E03FFFC01FFF8FD290000032900001D
:1047400003290000E7030000E703000000001E004B
:104750003C005A0078009600B400D200F0000E0130
:104760002C01000001000000020000000700000012
:104770001100000008000000000000201E05E412E7
:104780005B38FB09D4111105430D8B02E1D74501BC
:104790001EF6A200557C510053BE28002F5F140066
:1047A000982F0A00CC170500E68B0200F3450100A4
:1047B000FAA200007D510000BE2800005F14000036
:1047C000300A0000180500008C02000046010000BD
:1047D000A3000000510000002900000014000000A8
:1047E0000A000000050000000300000001000000B6
:1047F00001000000000000007C0E00205800002096
:104800000000000001000000010000007C0E0020FC
:10481000580000200100000001000000010000001D
:104820007C0E002034000020020000000100000087
:10483000010000007C0E00200400002003000000A6
:1048400002000000020000007C0E00205800002042
:104850000500000001000000010000007C0E0020A7
:10486000100000200600000002000000030000000D
:104870007C0E002000000000080000000500000081
:104880001F0000007C0E0020000000000D00000052
:1048900005000000140000007C0E00203C000020F9
:1048A0001200000003000000060000007C0E002043
:1048B0003C0000201500000003000000060000007E
:1048C0007C0E0020240000201800000002000000E0
:1048D000030000007C0E00203C0000201A000000B5
:1048E00003000000060000006937AC316821223364
:1048F000B40F14336821A2333863ED3EDA0F493F19
:084900005E987B3FDA0FC93F0E
:104C0000FFFFFFFFFFFFFFFFFFFFFFFFFFFFFFFFB4
:104C1000FFFFFFFFFFFFFFFFFFFFFFFFFFFFFFFFA4
:104C2000FFFFFFFFFFFFFFFFFFFFFFFFFFFFFFFF94
:104C3000FFFFFFFFFFFFFFFFFFFFFFFFFFFFFFFF84
:08540000C4B3FF7F01000000AE
:1054080001000000C3450008FD45000800460008EB
:10541800E5450008EA450008F1450008F64500089A
:10542800F0020020C3450008C7450008CB45000826
:10543800CF4500080446000808460008C345000890
:10544800D3450008D5450008D9450008D7450008C8
:10545800DB450008E0450008C34500081F43000875
:10546800C4090000FFFFFFFF00000000000000006B
:105478000000000000000000000000000000000024
:105488000000000000000000000000000000000014
:105498000000000000000000000000000000000004
:1054A80000000000000000000000000000000000F4
:1054B80000000000000000000000000000000000E4
:0C54C80000000000000000006800002050
:04000005080039595D
:00000001FF
